:100000000A128A11FA2F00308A000408840A820733
:1000100000344D3445344E34553420345034523449
:1000200049344E3443344934503441344C34003430
:100EF0008316031789018316031386018801831261
:100F000003138601880108000C308316031399002F
:100F1000181283120313981783160313981683125B
:100F200003130C1218160800F00007307006031D9A
:100F30009A2F9B2F9F2F7030831603138F04063038
:100F40007006031DA42FA52FAB2F831603130F08C4
:100F50008F3960388F00831603130F140800F100D7
:100F6000C32F831203130C1EB62FB72FB12F710896
:100F700084000A128A1103200A128A119900013092
:100F8000F0007008F107710884000A128A1103202A
:100F90000A128A11003A031DCE2FCF2FB12F08005D
:100FA0000A128A1178270A128A1107300A128A1146
:100FB00094270A128A110A128A1184270A128A11A6
:100FC00001300A128A11AF270A128A118312031301
:100FD0001A080630F4001330F300AD30F200F20BC3
:100FE000EF2FF30BEF2FF40BEF2FF62FE02F0A125A
:100FF0008A110028F501F60183010A128A11D02F07
:08400000FF3FFF3FFF3FFF3FC0
:04400E00D420FF3F7C
:00000001FF
