:100000000A128A11F32FFF1B0D2883137F18831701
:100010000008840A0319FF0A080000308A00040857
:10002000840A820700340D342034533465346C3430
:1000300065346334633469346F346E34653420342A
:100040006C34613420346F347034633469346F3409
:100050006E342034703472346534733469346F34E0
:100060006E3461346E3464346F34203465346C34EF
:1000700020346E3475346D34653472346F3400342A
:10008000563461346C346F347234203464346534E3
:100090006C34203470346F34743465346E346334AB
:1000A00069346F346D346534743472346F34203491
:1000B0000D34003449344E344734523445345334CB
:1000C00045342034563441344C344F345234203487
:1000D000443445342034413453344334493449346E
:1000E00020340D3400340D342034323420342D3497
:1000F000203445344E34563449344134523420345B
:10010000563441344C344F34523420344134533417
:1001100043344934493400340D34203431342034EC
:100120002D3420344C34453445345234203450344A
:100130004F34543445344E34433449344F344D34C1
:100140004534543452344F3400340D344D34453436
:100150004E34553420345034523449344E344334C0
:0A0160004934503441344C3400346B
:100AE20064008001840A0406031900340406722D8E
:100AF2008316031789018316031386018801831263
:100B020003138601880108000C3083160313990031
:100B1200181283120313981783160313981683125D
:100B220003130C12181608009B308316031392004D
:100B32000C308312031397000F309D04CF309705BA
:100B420095018C100330920412158C1CA92DAA2D2C
:100B5200A62D8316031387100711080083160317A7
:100B620089018316031385148316031788148312CD
:100B720003139F131F17831603139F121F129F1332
:100B8200831203131F144230F000F00BC62D000035
:100B92000800F00007307006031DD02DD12DD52D91
:100BA2007030831603138F0406307006031DDA2D8E
:100BB200DB2DE12D831603130F088F3960388F0068
:100BC200831603130F140800FA2D0C1EE92DEA2DCB
:100BD200E62D4008FF003F0884000A128A11032014
:100BE2000A128A1199000130BF070318C00A0030A7
:100BF200C007831203134008FF003F0884000A1253
:100C02008A1103200A128A11003A031D092E0A2EA4
:100C1200E62D0800700871040319102E112E402EC3
:100C2200F501F50A1F2E01300310F00DF10DFF3E04
:100C3200031D152E0130F4007408F507F11F222E52
:100C4200232E142E71087302031D292E70087202BE
:100C5200031C2C2E2D2E332E7008F2027108031C59
:100C6200F303F30201300310F10CF00CFF3E031DFD
:100C7200342E0130F502031D3F2E402E232E730821
:100C8200F1007208F0000800F501F6017008710425
:100C920003194C2E4D2E842EF701F70A5B2E0130DC
:100CA2000310F00DF10DFF3E031D512E0130F40033
:100CB2007408F707F11F5E2E5F2E502E01300310CD
:100CC200F50DF60DFF3E031D602E71087302031D24
:100CD2006C2E70087202031C6F2E702E772E700815
:100CE200F2027108031CF303F302751401300310BE
:100CF200F10CF00CFF3E031D782E0130F702031DAC
:100D0200832E842E5F2E7608F1007508F00008000D
:100D120083120313BE007908BC007808BB007B086D
:100D2200F1007A08F0003C08F3003B08F2000A12D6
:100D32008A1145260A128A11710883120313BC0014
:100D42007008BB000130FC007C08BE073B083C0475
:100D5200031DAC2EAD2E902E3E088400831380011D
:100D62000130BE027B08F1007A08F0007908F30036
:100D72007808F2000A128A110B260A128A117008E8
:100D820083120313BD007B08F1007A08F000790892
:100D9200F3007808F2000A128A1145260A128A1113
:100DA2007108F9007008F8000A30831203133D023B
:100DB200031CDC2EDD2EE12E0730FC007C08BD0773
:100DC2003030FC007C08BD073E0884003D088313D8
:100DD20080000130BE0278087904031DF12EF22E44
:100DE200B32E0130FC007C08BE073E0808000A1240
:100DF2008A1179250A128A1107300A128A11CA2524
:100E02000A128A110A128A1185250A128A110A12F5
:100E12008A11AF250A128A110A128A1195250A121D
:100E22008A11933083120313BF008030C0000A126C
:100E32008A11E5250A128A11013083120313BF00B9
:100E42008030C0000A128A11E5250A128A117A300E
:100E520083120313BF008030C0000A128A11E525F5
:100E62000A128A11613083120313BF008030C0005E
:100E72000A128A11E5250A128A115F3083120313BE
:100E8200BF008030C0000A128A11E5250A128A11B9
:100E9200831203138C1E4E2F4F2F492F31301A0607
:100EA200031D542F552FC12F2E30BF008030C0009C
:100EB2000A128A11E5250A128A11831203131F08E6
:100EC200C33904389F00413083120313C100C10BA0
:100ED200682F6B2F831203139F149F18712F722F89
:100EE2006E2F0C13831603131E0883120313C10003
:100EF20006300310C10CFF3E031D7A2F1E08C200EC
:100F0200C3010310C20DC30D0310C20DC30D41086E
:100F12004207C4000030031801304307C5004408EB
:100F2200A8004508A9002908F9002808F8000A3095
:100F3200FA000030FB002A300A128A1189260A12AE
:100F42008A1183120313BF000030C0000A128A11F3
:100F5200E5250A128A115F3083120313BF00803025
:100F6200C0000A128A11E5250A128A11033083127F
:100F72000313C2009730C100C10BBD2FC20BBD2F9E
:100F82003230831203131A06031DC82FC92FE12F13
:100F92004830BF008030C0000A128A11E5250A12CB
:100FA2008A11831203138C1ED72FD82FD22F8C1E97
:100FB200DB2FDC2FE12F1A0888001A0899008C1207
:100FC200063083120313C3001330C200AD30C100D8
:100FD200C10BE92FC20BE92FC30BE92F122F0A1203
:100FE2008A1100288313203084003B300A128A11B0
:0E0FF20071250A128A1183010A128A11F82E43
:08400000FF3FFF3FFF3FFF3FC0
:04400E00D420FF3F7C
:00000001FF
