:060000000A128A11FA2F1A
:100F1400831603178901831603138601880183123C
:100F240003138601880108000C308316031399000B
:100F34001812831203139817831603139816831237
:100F440003130C1218160800F00007307006031D76
:100F5400AC2FAD2FB12F7030831603138F040630DE
:100F64007006031DB62FB72FBD2F831603130F086A
:100F74008F3960388F00831603130F1408000A1288
:100F84008A118A270A128A1107300A128A11A6279F
:100F94000A128A110A128A1196270A128A1101303A
:100FA400F100710883120313880783160313981C36
:100FB400DC2FDD2FE12F831203130808990083121D
:100FC4008C1EE52FE62FE92F1A0886008C120630B6
:100FD400F3001330F200AD30F100F10BEF2FF20B00
:100FE400EF2FF30BEF2FF62FD12F0A128A110028BF
:0C0FF400F401F50183010A128A11C12FDB
:08400000FF3FFF3FFF3FFF3FC0
:04400E00D420FF3F7C
:00000001FF
